:100000000C947A000C94A2000C94A2000C94A20010
:100010000C94A2000C94A2000C94A2000C94A200D8
:100020000C94A2000C94A2000C94A2000C94A200C8
:100030000C94A2000C94A2000C94A2000C94A200B8
:100040000C9430050C94A2000C94DD070C940F085E
:100050000C94A2000C94A2000C94A2000C94A20098
:100060000C94C7020C94A20047656E6572617469B6
:100070006E67202D2042494E000A5061636B657403
:10008000205472616E736D69747465642E0A000089
:100090000000080002010000030407000000000047
:1000A0000000000102040810204080010204081032
:1000B00020010204081020040404040404040402BF
:1000C00002020202020303030303030000000023F1
:1000D000002600290000000000250028002B000059
:1000E000000000240027002A0000A400B3019A02A7
:1000F0001B053F0811241FBECFEFD8E0DEBFCDBFE8
:1001000011E0A0E0B1E0ECE7F2E102C005900D9251
:10011000A83AB107D9F724E0A8EAB1E001C01D92DE
:10012000A832B207E1F710E0C4EFD0E004C0229794
:10013000FE010E943009CA3ED107C9F70E94FC089F
:100140000C943C090C94000063E088ED91E00E945F
:10015000CF0168ED71E085EC91E00E94F30147E08A
:1001600050E068E070E08FEB91E00E94B70188EA10
:1001700091E00C940202CF9360E071E08BE893E091
:100180000E94E30882E090E00E943409C82F83E0D7
:1001900090E00E9434092C2F30E0382B3093E90195
:1001A0002093E8011092EA011092EB011092EC0109
:1001B0001092ED011092EE0110920B0210920C02BF
:1001C00010920D0210920E021092100210920F0265
:1001D000A1E1B2E080E090E0FC01F595E795F595AE
:1001E000E795EE0FFF1FEA51FE4F12861186108E23
:1001F000178AE75BFF4F118210821D921D920196B4
:100200008C33910549F76DE071E08BE893E0CF9175
:100210000C94E3080F931F93CF93DF93CDB7DEB712
:10022000CE55D1090FB6F894DEBF0FBECDBF61E049
:1002300084E00E94620600E010E0980140E050E097
:10024000BA01CE01895A9F4F0E946104AE014F5FEF
:100250005F4F83E4FA0111928A95E9F787E5E6EEAC
:10026000F1E0DA0101900D928A95E1F727E5BE01F0
:10027000695A7F4FCE018C5B9F4F0E946F04BE0175
:100280006C5B7F4F8DE392E00E94AB04C25ADF4F5C
:100290000FB6F894DEBF0FBECDBFDF91CF911F9197
:1002A0000F91089568E670E08BE893E00E94E908FA
:1002B00081E090E09093F4018093F30182E090E07C
:1002C000909302028093010283E090E090932602D3
:1002D0008093250284E090E0A0E0B0E080930B02E0
:1002E00090930C02A0930D02B0930E0286E090E072
:1002F0009093100280930F028AE08093EE0188EEC3
:1003000093E0A0E0B0E08093EA019093EB01A0932A
:10031000EC01B093ED0187E090E09093340280937C
:100320003302089526E040E855E260E070E08BE893
:1003300093E00E947B076BE873E08DE392E00E94FC
:1003400043040E94BB000C9452010E940A0169E719
:1003500070E08BE893E00E94E90860E777E180E0D5
:1003600090E00C949D058DE392E00C943104FC0127
:1003700071836083538342830895FC01138615863D
:10038000148627E030E0DF01A20FB31F13961C9202
:100390002115310519F021503109F5CF08951F932A
:1003A000CF93DF93EC01162F60E0812F0E94290686
:1003B000612F70E0FB01ED55FF4FE491E883FB01F5
:1003C000E954FF4FE491F0E0EE0FFF1FE553FF4FBC
:1003D000859194919A838983CE01DF91CF911F916A
:1003E0000C94BD010895FC0182EF91E0928B818B0A
:1003F000768365831482108289E0818381E0828321
:100400008383089508958091EA0290E02091EB02A1
:10041000821B910908952091EB028091EA0228172E
:1004200050F4E22FF0E0E451FD4F808190E02F5F27
:100430002093EB0208958FEF9FEF0895E091EB0278
:100440008091EA02E81730F4F0E0E451FD4F80813A
:1004500090E008958FEF9FEF08950895CF92DF9277
:10046000EF92FF920F931F93CF93DF937C01CB0109
:100470008A012091C702222389F0EB016B01C40E8F
:10048000D51ECC15DD0569F06991D701ED91FC9180
:100490000190F081E02DC7010995F3CF642F0E94F0
:1004A0009E02C801DF91CF911F910F91FF90EF90B5
:1004B000DF90CF900895CF93DF931F92CDB7DEB733
:1004C00069832091C7022223D1F02091C8022032F3
:1004D00040F021E030E0FC013383228380E090E0B3
:1004E00015C08091C902E82FF0E0E653FD4F9981D5
:1004F00090838F5F8093C9028093C80205C061E03A
:10050000CE0101960E949E0281E090E00F90DF9163
:10051000CF910895FC011382128248EE53E060E00F
:1005200070E0448355836683778383E791E091830A
:10053000808308958BEB92E00C948A02613298F4E8
:1005400020917903243089F460932E03FC0180E329
:1005500093E0DC012A2F281B261718F421912D93F4
:10056000F9CF80E0089581E0089582E0089585ED57
:100570008093BC008091BC0084FDFCCF1092790375
:10058000089585EC8093BC001092790308951F9222
:100590000F920FB60F9211242F933F934F935F93B7
:1005A0006F937F938F939F93AF93BF93EF93FF933B
:1005B0008091B900887F803609F49EC078F5883232
:1005C00009F45DC090F4803109F456C038F48823F2
:1005D00009F4F5C0883009F44FC0F5C0883109F43A
:1005E0004EC0803209F45FC0EEC0803409F46AC0A6
:1005F00058F4803309F457C0883309F0E4C080937D
:100600000C030E94C102DFC0803509F44FC0883559
:1006100009F45DC0883409F0D6C0D3C0883909F424
:10062000C4C0A8F4883709F467C038F4883609F4E0
:1006300063C0803709F460C0C6C0883809F4B5C00B
:10064000803909F45FC0803809F0BDC05BC0803BD1
:1006500009F483C038F4803A09F466C0883A09F492
:100660007CC0B1C0803C09F4A4C0883C09F4A1C09E
:10067000883B09F487C0A7C08091780310C090918F
:10068000510380915003981770F5E091510381E078
:100690008E0F80935103F0E0EE5AFC4F80818093DF
:1006A000BB0085EC83C080930C038BC0E0915103A9
:1006B00081E08E0F809351038091BB00F0E0EE5AF1
:1006C000FC4F808390915103809150036BC0E09167
:1006D000510381E08E0F809351038091BB00F0E0C5
:1006E000EE5AFC4F80838091770381116AC081E0CC
:1006F0008093760384EA5EC083E08093790310924E
:100700000D03CFCF80910D03803208F04EC0E091F1
:100710000D0381E08E0F80930D038091BB00F0E00C
:10072000E25FFC4F8083BDCF0E94C10280910D0328
:10073000803230F4E0910D03F0E0E25FFC4F108274
:1007400060910D0370E0E0917203F09173038EE00D
:1007500093E0099510920D0336C084E080937903ED
:1007600010922F0310922E03E0917403F091750301
:10077000099580912E03811105C081E080932E039D
:1007800010923003E0912F0381E08E0F80932F03AE
:10079000F0E0E05DFC4F80818093BB0090912F03DF
:1007A00080912E03981708F47CCF85E88093BC00D5
:1007B0000AC085EC8093BC001092790304C01092AB
:1007C0000C030E94B702FF91EF91BF91AF919F91EF
:1007D0008F917F916F915F914F913F912F910F90EA
:1007E0000FBE0F901F901895FC018681845F0895BD
:1007F000FC01611102C082850895613011F4818588
:100800000895623011F480850895633011F4878172
:100810000895643011F486850895653011F4858556
:100820000895663011F484850895673011F4838546
:100830000895683011F480890895693011F487852E
:1008400008956A3011F4818908956B3011F482891A
:1008500008950480F581E02DE60FF11D3C9780811D
:100860000895FC011286118614861586178210865B
:1008700015820E9691838083E458FF4F8BE893E0B6
:1008800091838083089584589F4FFC017183608316
:10089000089584589F4FDC018D919C91DC01ED916E
:1008A000FC910284F385E02D099484589F4FDC016C
:1008B0008D919C91DC01ED91FC910190F081E02DF6
:1008C00009940F931F93FC014083518362837383C8
:1008D00004831583268337831F910F910895CF9347
:1008E000DF93EC0180E18A8381E08B835D834C831D
:1008F0002E8383E891E09983888388E0FB01DE0101
:10090000179601900D928A95E1F78EEF9FEF988BE5
:100910008F87198A1A8ADF91CF9108951F93CF93F9
:10092000DF93EC01162F442379F083E8860F8230A1
:1009300020F0862F8D7F813139F46DE7CE010E9442
:10094000550460E2612701C0612FCE01DF91CF9194
:100950001F910C945504DF92EF92FF920F931F9317
:10096000CF93DF938C01EB016EE70E945504E88181
:10097000F9810280F381E02DCE010995E82EE8810E
:10098000F9810280F381E02DCE010995F82E2E2DFC
:1009900030E02E5F3F4F41E0632FC8010E948E047C
:1009A00062E06F0D41E0C8010E948E0441E06A815F
:1009B000C8010E948E0441E06B81C8010E948E0430
:1009C000DA808B81D80EE12CF12CE881F98102804C
:1009D000F381E02DCE010995282F30E0E216F306D1
:1009E000D4F4E881F9810190F081E02D6E2DCE01E3
:1009F000099541E0682FC8010E948E04E881F981C1
:100A00000190F081E02D6E2DCE010995D80E8FEF6B
:100A1000E81AF80ADACF6D2D609541E0C8010E940E
:100A20008E04C801DF91CF911F910F91FF90EF903D
:100A3000DF900C94490410927A0310927B03109279
:100A40007C0310927D038FEF9FEFA0E0B0E08093D6
:100A50007E0390937F03A0938003B0938103089556
:100A60001F920F920FB60F9211242F933F938F93E3
:100A70009F93AF93BF938091830390918403A09140
:100A80008503B09186033091820323E0230F2D3735
:100A900020F40196A11DB11D05C026E8230F029682
:100AA000A11DB11D2093820380938303909384033F
:100AB000A0938503B0938603809187039091880368
:100AC000A0918903B0918A030196A11DB11D809365
:100AD000870390938803A0938903B0938A03BF91FF
:100AE000AF919F918F913F912F910F900FBE0F90DB
:100AF0001F9018953FB7F8948091870390918803D1
:100B0000A0918903B0918A0326B5A89B05C02F3F09
:100B100019F00196A11DB11D3FBF6627782F892FBF
:100B20009A2F620F711D811D911D42E0660F771F84
:100B3000881F991F4A95D1F70895CF92DF92EF92BF
:100B4000FF92CF93DF936B017C010E947A05EB014A
:100B5000C114D104E104F10489F00E940B090E9440
:100B60007A056C1B7D0B683E734090F381E0C81AD8
:100B7000D108E108F108C851DC4FEACFDF91CF91ED
:100B8000FF90EF90DF90CF900895789484B58260C5
:100B900084BD84B5816084BD85B5826085BD85B521
:100BA000816085BDEEE6F0E0808181608083E1E8D0
:100BB000F0E0108280818260808380818160808308
:100BC000E0E8F0E0808181608083E1EBF0E080810B
:100BD00084608083E0EBF0E0808181608083EAE7DD
:100BE000F0E0808184608083808182608083808166
:100BF000816080838081806880831092C100089525
:100C0000833081F028F4813099F08230A1F008958A
:100C10008730A9F08830B9F08430D1F48091800019
:100C20008F7D03C0809180008F778093800008952E
:100C300084B58F7702C084B58F7D84BD089580917F
:100C4000B0008F7703C08091B0008F7D8093B0009B
:100C50000895CF93DF9390E0FC01ED55FF4F249171
:100C6000FC01E954FF4F8491882349F190E0880FFB
:100C7000991FFC01E152FF4FA591B4918B529F4FF8
:100C8000FC01C591D4919FB7611108C0F8948C9173
:100C9000209582238C93888182230AC0623051F48C
:100CA000F8948C91322F309583238C938881822BFA
:100CB000888304C0F8948C91822B8C939FBFDF9122
:100CC000CF9108950F931F93CF93DF931F92CDB7CA
:100CD000DEB7282F30E0F901E157FF4F8491F90189
:100CE000ED55FF4F1491F901E954FF4F0491002392
:100CF000C9F0882321F069830E9400066981E02FF2
:100D0000F0E0EE0FFF1FEB52FF4FA591B4919FB79C
:100D1000F8948C91611103C01095812301C0812B3F
:100D20008C939FBF0F90DF91CF911F910F910895EA
:100D3000FC01818D228D90E0805C9F4F821B910988
:100D40008F7399270895FC01918D828D981731F04A
:100D5000828DE80FF11D858D90E008958FEF9FEF54
:100D60000895FC01918D828D981761F0828DDF01CD
:100D7000A80FB11D5D968C91928D9F5F9F73928F8E
:100D800090E008958FEF9FEF089585E398E0892B19
:100D900049F080E090E0892B29F00E94350881110C
:100DA0000C9400000895FC01848DDF01A80FB11D93
:100DB000A35ABF4F2C91848D90E001968F73992791
:100DC000848FA689B7892C93A089B1898C9180647E
:100DD0008C93938D848D981306C00288F389E02D3F
:100DE00080818F7D80830895CF93DF93EC01888D80
:100DF0008823C9F0EA89FB89808185FD05C0A8891F
:100E0000B9898C9186FD0FC00FB607FCF5CF8081A4
:100E100085FFF2CFA889B9898C9185FFEDCFCE01EE
:100E20000E94D306E7CFDF91CF910895CF92DF9252
:100E3000FF920F931F93CF93DF931F92CDB7DEB72F
:100E40006C0181E0D60158968C9358975B969C91E3
:100E50005B975C968C915C97981307C05096ED91C8
:100E6000FC915197808185FD2EC0F601038D10E025
:100E70000F5F1F4F0F731127F02EF601848DF812AC
:100E800011C00FB607FCF9CFD6015096ED91FC9139
:100E90005197808185FFF1CFC60169830E94D306F7
:100EA0006981EBCF838DE80FF11DE35AFF4F60831B
:100EB000D6015B960C935B975296ED91FC915397FC
:100EC000808180620CC0D6015696ED91FC915797B7
:100ED00060835096ED91FC9151978081806480836E
:100EE00081E090E00F90DF91CF911F910F91FF90E3
:100EF000DF90CF900895BF92CF92DF92EF92FF9252
:100F0000CF93DF93EC016A017B01B22EE889F98966
:100F100082E08083411581EE580761057105A1F0DB
:100F200060E079E08DE390E0A70196010E940C0952
:100F30002150310941095109569547953795279513
:100F4000211580E1380798F0E889F989108260E876
:100F500074E88EE190E0A70196010E940C092150EF
:100F60003109410951095695479537952795EC85E3
:100F7000FD853083EE85FF852083188EEC89FD8901
:100F8000B082EA89FB89808180618083EA89FB895C
:100F9000808188608083EA89FB8980818068808382
:100FA000EA89FB8980818F7D8083DF91CF91FF90DB
:100FB000EF90DF90CF90BF9008951F920F920FB6E1
:100FC0000F9211242F938F939F93EF93FF93E091B0
:100FD0009B03F0919C038081E091A103F091A20317
:100FE00082FD12C090818091A4038F5F8F73209146
:100FF000A503821751F0E091A403F0E0E557FC4F00
:10100000958F8093A40301C08081FF91EF919F9100
:101010008F912F910F900FBE0F901F9018951F92D8
:101020000F920FB60F9211242F933F934F935F931C
:101030006F937F938F939F93AF93BF93EF93FF93A0
:101040008BE893E00E94D306FF91EF91BF91AF919F
:101050009F918F917F916F915F914F913F912F91D0
:101060000F900FBE0F901F9018958BE893E00E9491
:10107000980621E0892B09F420E0822F0895109230
:101080008E0310928D0388EE93E0A0E0B0E0809391
:101090008F0390939003A0939103B09392038BE8F6
:1010A00091E090938C0380938B0385EC90E0909378
:1010B00098038093970384EC90E090939A03809335
:1010C000990380EC90E090939C0380939B0381ECC8
:1010D00090E090939E0380939D0382EC90E0909328
:1010E000A00380939F0386EC90E09093A2038093EB
:1010F000A1031092A4031092A5031092A6031092CC
:10110000A7030895CF92DF92EF92FF920F931F9360
:10111000CF93DF937C016A01EB0100E010E00C1536
:101120001D0571F06991D701ED91FC910190F0815D
:10113000E02DC7010995892B19F00F5F1F4FEFCFE5
:10114000C801DF91CF911F910F91FF90EF90DF9039
:10115000CF9008956115710581F0DB010D9000209D
:10116000E9F7AD0141505109461B570BDC01ED91E8
:10117000FC910280F381E02D099480E090E00895D5
:10118000EF92FF920F931F93CF93DF938C017B011C
:10119000C0E0D0E0F701EC0FFD1F6491662359F029
:1011A000F801A081B181ED91FC91C8010995892BCD
:1011B00011F02196EFCFCE01DF91CF911F910F91CA
:1011C000FF90EF9008950C94AA0867E971E00C94E1
:1011D000AA080F931F93CF93DF93EC010E94C008DE
:1011E0008C01CE010E94E508800F911FDF91CF9105
:1011F0001F910F91089508950E94C5050E94FB0854
:101200000E949201C5ECD6E00E94A5012097E1F36F
:101210000E94C506F9CF0895A1E21A2EAA1BBB1B96
:10122000FD010DC0AA1FBB1FEE1FFF1FA217B307B2
:10123000E407F50720F0A21BB30BE40BF50B661FC8
:10124000771F881F991F1A9469F76095709580958C
:1012500090959B01AC01BD01CF010895EE0FFF1FDA
:101260000590F491E02D0994F999FECF92BD81BDCE
:0C127000F89A992780B50895F894FFCFF4
:10127C00426567696E3A636C6561720A00456E641B
:10128C003A636C6561720A00426567696E3A636F16
:10129C006E0A000A536F6C61724972726D5620446B
:1012AC006174613A000A48756D6964697479706398
:1012BC007420446174613A000A50726573737572DC
:1012CC0065706120446174613A000A526F6F665414
:1012DC00656D70646563696320446174613A0000F4
:1012EC000000005B022E0203020B021E022D020004
:1012FC00000000F803F403000000001607820898B1
:10130C0006B106A306F4060D0A006E616E00696E46
:08131C0066006F7666002E00EA
:107E0000112484B714BE81FFF0D085E080938100F7
:107E100082E08093C00088E18093C10086E0809377
:107E2000C20080E18093C4008EE0C9D0259A86E02C
:107E300020E33CEF91E0309385002093840096BBD3
:107E4000B09BFECF1D9AA8958150A9F7CC24DD24C4
:107E500088248394B5E0AB2EA1E19A2EF3E0BF2EE7
:107E6000A2D0813461F49FD0082FAFD0023811F036
:107E7000013811F484E001C083E08DD089C08234E0
:107E800011F484E103C0853419F485E0A6D080C0E4
:107E9000853579F488D0E82EFF2485D0082F10E0AE
:107EA000102F00270E291F29000F111F8ED06801E7
:107EB0006FC0863521F484E090D080E0DECF843638
:107EC00009F040C070D06FD0082F6DD080E0C81688
:107ED00080E7D80618F4F601B7BEE895C0E0D1E017
:107EE00062D089930C17E1F7F0E0CF16F0E7DF06D8
:107EF00018F0F601B7BEE89568D007B600FCFDCFD4
:107F0000A601A0E0B1E02C9130E011968C91119780
:107F100090E0982F8827822B932B1296FA010C0160
:107F200087BEE89511244E5F5F4FF1E0A038BF0790
:107F300051F7F601A7BEE89507B600FCFDCF97BE46
:107F4000E89526C08437B1F42ED02DD0F82E2BD052
:107F50003CD0F601EF2C8F010F5F1F4F84911BD097
:107F6000EA94F801C1F70894C11CD11CFA94CF0C13
:107F7000D11C0EC0853739F428D08EE10CD085E9AC
:107F80000AD08FE07ACF813511F488E018D01DD067
:107F900080E101D065CF982F8091C00085FFFCCF94
:107FA0009093C60008958091C00087FFFCCF809118
:107FB000C00084FD01C0A8958091C6000895E0E648
:107FC000F0E098E1908380830895EDDF803219F02E
:107FD00088E0F5DFFFCF84E1DECF1F93182FE3DFCA
:107FE0001150E9F7F2DF1F91089580E0E8DFEE27F6
:047FF000FF270994CA
:027FFE00040479
:0400000300007E007B
:00000001FF
